:0C0000000C9434000C9400000C940000E0
:10000C000C9400000C9400000C9400000C94000064
:10001C000C9400000C9400000C9400000C94000054
:10002C000C9400000C9400000C9400000C94000044
:10003C000C9400000C9400000C9400000C94000034
:10004C000C9400000C9400000C9400000C94000024
:10005C000C9400000C9400000C940000F894EE2713
:10006C00EFBBF1E0F5BFE5BF8DE0A2E0BB27ED9360
:10007C008A95E9F780E094E0A0E0B1E0ED93019778
:10008C00E9F7E0E0EEBBEFEFEDBFE4E0EEBFC0E080
:10009C00D2E00C945100E0E8E0936100E0E0E093E2
:1000AC006100E7E0E4B9E5B9E0E0E7B9E8B9EAB93D
:1000BC00EBB9E4BDE5BDE6BDE7BDE8BDE09380006E
:1000CC00E0938100E0938500E0938400E093870047
:1000DC00E0938600E0938900E0938800E0938B0026
:1000EC00E0938A00E093B600E093B000E093B10097
:1000FC00E093B200E093B300E093B400E0936E00A1
:10010C00E0936F00E0937000E0936900EDBBE09327
:10011C006800E093C100E0E8E0BFE0E0E0937B0022
:10012C00E0937F00E0937A00ECBDE093BC0015D027
:10013C0014D0289A1CD028981AD0289A299A299831
:10014C002898299A29982898299A2998289A299A96
:10015C0029982A9A2A98EBCFFFCF2898299A299880
:10016C002898299A29982898299A29980895299A9B
:10017C002998289A299A29982898299A299808958B
:00000001FF
