:020000000C945E
:1000020034000C9400000C9400000C9400000C943A
:1000120000000C9400000C9400000C9400000C945E
:1000220000000C9400000C9400000C9400000C944E
:1000320000000C9400000C9400000C9400000C943E
:1000420000000C9400000C9400000C9400000C942E
:1000520000000C9400000C9400000C9400000C941E
:1000620000000C940000F894EE27EFBBF1E0F5BF1E
:10007200E5BF8DE0A2E0BB27ED938A95E9F780E02A
:1000820094E0A0E0B1E0ED930197E9F7E0E0EEBB88
:10009200EFEFEDBFE4E0EEBFC0E0D2E00C949500DC
:1000A20099D09FD09ED096D095D094D0289836C023
:1000B20091D090D08FD09FD029C08CD09CD0299A3B
:1000C200299888D098D0299A299884D083D0289AC0
:1000D20022C080D07FD07ED07DD092D091D0289A7D
:1000E2001AC078D07ED08CD092D02898299A29989C
:1000F2008ED091D016C07FD0299A29986BD07BD010
:10010200299A29982898299A29982898299A2998E1
:1001120061D076D02898299A29987DD0299A299851
:100122002898299A29980895E0E8E0936100E0E090
:10013200E0936100E7E0E4B9E5B9E0E0E7B9E8B9E6
:10014200EAB9EBB9E4BDE5BDE6BDE7BDE8BDE093C4
:100152008000E0938100E0938500E0938400E093C7
:100162008700E0938600E0938900E0938800E093A3
:100172008B00E0938A00E093B600E093B000E09336
:10018200B100E093B200E093B300E093B400E093D7
:100192006E00E0936F00E0937000E0936900EDBBA6
:1001A200E0936800E093C100E0E8E0BFE0E0E093A4
:1001B2007B00E0937F00E0937A00ECBDE093BC000B
:1001C2009ADF8FDF86DF79DF73DF6ADF2A9A2A9868
:1001D200F7CFFFCF2898299A29982898299A299801
:1001E2000895289A299A2998289A299A2998289A22
:1001F200299A29980895289A299A2998289A089537
:10020200289A299A29982898299A29980895289A03
:10021200299A2998DFCF2898299A2998289A089507
:00000001FF
