:0C0000000C944A000C9400000C940000CA
:10000C000C9400000C9400000C9400000C94000064
:10001C000C9400000C9400000C9400000C94000054
:10002C000C9400000C9400000C9400000C94000044
:10003C000C9400000C9400000C9400000C94000034
:10004C000C9400000C9400000C9400000C94000024
:10005C000C9400000C9400000C9400001027E80392
:10006C0064000A00010000100001100001000000F3
:10007C000000000000000000000025640D0A0000D4
:10008C000C0003007A000000F894EE27EFBBF1E0BF
:10009C00F5BFE5BF8DE0A2E0BB27ED938A95E9F7AC
:1000AC0080E094E0A0E0B1E0ED930197E9F7ECE893
:1000BC00F0E085919591009761F0A591B59105902F
:1000CC001590BF01F00105900D920197E1F7FB012E
:1000DC00F0CFE0E0EEBBEFEFEDBFE4E0EEBFC0E051
:1000EC00D2E00C94650138D337D340D358D383C0B6
:1000FC0056D3299A29983AD357D3299A29984FD36A
:10010C00299A2998289877C027D352D348D3299A6B
:10011C00299845D351D369C01FD31ED340D3299AF4
:10012C0029983DD350D361C03AD351D356D359D328
:10013C004AD35BC0289A4BD33BD359D344D355C035
:10014C00289A45D335D3289A42D329D33CD34DC0D2
:10015C0003D32AD3299A299822D3299A29981FD3D1
:10016C00299A29981CD3299A299819D3299A29981C
:10017C0016D341C0F1D2F0D2289A29D310D323D36D
:10018C0034C0EAD2E9D233D31ED32FC008D3299A74
:10019C00299805D3299A299802D3299A2998FFD20C
:1001AC00299A2998FCD2299A2998F9D2299A29981E
:1001BC00F6D2299A2998F3D21EC0289A08D3F8D2DD
:1001CC00289A05D3ECD20DD3299A2998E8D213C0DA
:1001DC00E6D2299A2998E3D2299A2998E0D2F7D223
:1001EC00FCD2EAD2299A2998289A299A2998D7D206
:1001FC00299A2998289A299A299808951A931A2F96
:10020C00E12FE0937C0083E08A95F1F7E0917A008E
:10021C00E064E0937A00E0917A00E071E1F3E09120
:10022C007A00E061E0937A00E0917800F091790037
:10023C001BC11A930A938D01F801309711F453DF07
:10024C003BC0E130A0E0FA0711F452DF35C0E230D8
:10025C00A0E0FA0711F458DF2FC0E330A0E0FA0752
:10026C0011F45ADF29C0E430A0E0FA0711F45CDF86
:10027C0023C0E530A0E0FA0711F45CDF1DC0E630C6
:10028C00A0E0FA0711F45CDF17C0E730A0E0FA0732
:10029C0011F45EDF11C0E830A0E0FA0711F46ADF58
:1002AC000BC0E930A0E0FA0711F46BDF05C0EA30AF
:1002BC00A0E0FA0709F46ADF099119910895E0E8C2
:1002CC00E0936100E0E0E0936100E7E0E4B9E0E096
:1002DC00E5B9E7B9E0E3E8B9E0E0EAB9EBB9E4BDC8
:1002EC00E5BDE6BDE7BDE8BDE0938000E09381008D
:1002FC00E0938500E0938400E0938700E093860010
:10030C00E0938900E0938800E0938B00E0938A00EF
:10031C00E093B600E093B000E093B100E093B2003C
:10032C00E093B300E093B400E0936E00E0936F00B1
:10033C00E0937000E0936900EDBBE0936800E093FC
:10034C00C000E8E1E093C100E6E0E093C200E0E029
:10035C00E093C500ECE0E093C400E0E8E0BFE0E02F
:10036C00E0937F00E1E8E0937A00E0E0E0937B002B
:10037C00E0937E00ECBDE093BC00E1E0F0E03E0ECB
:10038C004F1EE8EEF3E0E315F40509F063C03324E7
:10039C004424A0E033DF5E2E6F2EA52DB62DE8EEA3
:1003AC00F3E090D27E2E8F2E26D2DF01E4E6F0E031
:1003BC0089D29E2EAF2E1FD229D2DB01AE1BBF0BD2
:1003CC00EAE0F0E07FD2BE2ECF2E15D21FD26E1BEC
:1003DC007F0BEB2DFC2DAAE0B0E059D2DB01AE1B5C
:1003EC00BF0BDA2EEB2EEAE0F0E05E166F062CF473
:1003FC0014D2CCDECBDECADE1AC0E4E6F0E05E1628
:10040C006F063CF40AD2AB2DBC2D13DFBFDEBEDE73
:10041C000EC0E8EEF3E05E166F0624F4FED102D2B5
:10042C00B5DE05C0FAD1FED1A72DB82D02DF2A9A70
:10043C002A98E6E8F0E0FA93EA93E52DF62D6F2F73
:10044C00660F660B762F55D284E046D12696A8EE21
:10045C00B3E054D292CFFFCF1A931A2FE091C00081
:10046C00E072E1F31093C6001991089500D28D014A
:10047C003C81A32FF1DFD801ED91FD913196FE93D4
:10048C00EE93FCD125960895BA93AA932697EDD1B5
:10049C0010E0AC85BD85E0E0F0E0ED93FC93EA89DB
:1004AC00FB893196EA8BFB8B3197E4912E2FE03050
:1004BC0009F40BC1E12FE03031F4253211F411E0D5
:1004CC0001C0B6D101C1E130A1F4253211F4B0D193
:1004DC00FAC012E040E000E02D3211F401E0F4C06B
:1004EC002B3211F44BE2F0C0203211F440E2ECC09C
:1004FC0002C0E23039F450E013E0203311F400680C
:10050C00E3C003C0E33009F0DFC0203310F02A331E
:10051C0008F007C0AAE05A9F502DE22FE0535E0F5F
:10052C00D3C0E22FE33639F48AD1E889F989A48162
:10053C00AA938BD1C8C0E33729F481D18CD1F3D0E5
:10054C001E2F07C0E03749F47AD185D1F8D01E2F81
:10055C00086002600F7730E03AC0E43611F0E936FB
:10056C0011F4046002C0E53731F4E8E6F0E0EE8304
:10057C00FF8315E00CC0E83511F4086003C0E837C0
:10058C0009F0A1C0E2E7F0E0EE83FF8314E002FF84
:10059C0015C055D1A889B9891496ED91FD91EA87BA
:1005AC00FB87AB85AA2322F46ED1EA87FB874DE249
:1005BC00403011F01F5F01C00B7F09C040D1A889EA
:1005CC00B9891496ED91FC911197EA87FB8700FD90
:1005DC0010C0151770F407FF08C002FF04C00B7F92
:1005EC00242F115001C020E301C020E221D1515031
:1005FC00F0CF312F01FF16C0303099F003FF06C049
:10060C00EE81FF812591EE83FF8305C0AE81BF8112
:10061C002D91AE83BF830CD1503009F05150315025
:10062C00EBCF48C020E3EE81FF815FD1E887F987EB
:10063C00EE81FF813296EE83FF83E885F985AA85EA
:10064C00BB85AE17BF0750F02F5FA885B985EA852B
:10065C00FB85EA1BFB0BEA87FB87EFCF2A3328F0DD
:10066C0003FF02C0295F01C0295D04FD19C02133BD
:10067C0020F4A885B985119709F409C0531710F017
:10068C0000FF01C011C020E207FF0AC020E3006197
:10069C0002FF06C00B7F4A93D8D0503009F051505E
:1006AC00C7D0503009F051503150A885B9851297F8
:1006BC0008F0B8CF00FF07C0503029F05150E0E2ED
:1006CC00EA93C3D0F9CF10E0EACEAC85BD85ED91AD
:1006DC00FD91D2D064960895FF92F82E26971A9326
:1006EC000A93DE0114960024AF0DB01D8D01E0E0DD
:1006FC00EC83ED83EE83EF83DE0118960024AF0DBF
:10070C00B01DED91FD91FA93EA931A930A93ECE3E1
:10071C00F2E0FA93EA93DE011896B6DE19810881AD
:10072C002896FF900895BA93AA93A991B991EE27B0
:10073C00FF276D91662311F03196FBCF0895BA9384
:10074C00AA93AA27BB27E991F9910590002011F0F3
:10075C001196FBCFFD010895289A299A2998289A79
:10076C00299A2998289A299A29980895289A299A91
:10077C002998289A299A29982898299A2998289862
:10078C00299A29982898299A29982898299A299851
:10079C002898299A29982898299A29980895289868
:1007AC00299A299828980895289A299A2998F7CF50
:1007BC002898299A2998D0CF299A2998289A299A41
:1007CC00299828980895299A29982898F5CF299A34
:1007DC002998289A299A29980895289A299A299823
:1007EC00DECF299A29982898299A2998DDCF28981C
:1007FC00299A2998D9CFE72DF82DA8EEB3E047D048
:10080C00DF01E52DF62DEA1BFB0B0895BF01E92D49
:10081C00FA2DA4E6B0E03BD00895CFDCD9DCAD2DA9
:10082C00BE2D07CDAB2DBC2D04DDA92DBA2D01CDD0
:10083C002A93AD85BE85EF85F88909950895E889D9
:10084C00F9893497E88BF98B0895AD85BE85EF85D2
:10085C00F88909950895A889B9891496ED91FD91A7
:10086C00EE83FF83AE81BF8108955A934A933A93E6
:10087C002A931A930A9308955D814C813B812A81B6
:10088C00198108810895F195E195F0400895FA9F3A
:10089C00F02DEB9FF00DEA9FE02DF10D0895002453
:1008AC00112490E1AA0FBB1F001C111C0E1A1F0A69
:1008BC0018F40E0E1F1E01C0A1609A9599F7FD0148
:1008CC00D001089504D0EBDF0EF4DDDF0895E89439
:1008DC00F7FF02C0D8DF6894B7FF06C0B195A195A9
:1008EC00B04000F8039400FA08950590F491E02DBF
:1008FC0008957A936A93FA93EA930895109639F0CF
:10090C00A8958AEF90E00197F1F71197C9F7089530
:00000001FF
