:100000000C943D000C9400000C9400000C94000033
:100010000C9400000C9400000C9400000C94000060
:100020000C9400000C9400000C9400000C94000050
:100030000C9400000C9400000C9400000C94000040
:100040000C9400000C9400000C9400000C94000030
:100050000C9400000C9400000C9400000C94000020
:100060000C9400000C9400001027E80364000A00C0
:1000700001000010000110000100F894EE27EFBB12
:10008000F1E0F5BFE5BF8DE0A2E0BB27ED938A95D7
:10009000E9F780E094E0A0E0B1E0ED930197E9F7A3
:1000A000E0E0EEBBEFEFEDBFE4E0EEBFC0E0D2E09A
:1000B0000C945A00E0E8E0936100E0E0E093610016
:1000C000E1E0E4B9E0E0E5B9E7E0E7B9E8E3E8B9A1
:1000D000E0E0EAB9EBB9E4BDE5BDE6BDE7BDE8BDEA
:1000E000E0938000E0938100E0938500E09384003A
:1000F000E0938700E0938600E0938900E093880016
:10010000E0938B00E0938A00E093B600E093B000A8
:10011000E093B100E093B200E093B300E093B40049
:10012000E0936E00E0936F00E0937000E09369004D
:10013000EDBBE0936800E093C000E8E1E093C1000C
:10014000E6E0E093C200E0E0E093C500ECE0E0937D
:10015000C400E0E8E0BFE0E0E0937B00E0937F00D4
:10016000E0937A00ECBDE093BC00409B02C0409855
:1001700001C0409A419B02C0419801C0419A429BF4
:1001800002C0429801C0429AA4E6B0E02FD0409B42
:1001900002C0409801C0409AA4E6B0E027D0419B3D
:1001A00002C0419801C0419AA4E6B0E01FD0409B34
:1001B00002C0409801C0409AA4E6B0E017D0429B2C
:1001C00002C0429801C0429AA4E6B0E00FD0409B22
:1001D00002C0409801C0409A419B02C0419801C0B2
:1001E000419AA4E6B0E002D0C0CFFFCF109639F01C
:1001F000A8958AEF90E00197F1F71197C9F7089554
:00000001FF
