:080000000C9442000C94000076
:100008000C9400000C9400000C9400000C94000068
:100018000C9400000C9400000C9400000C94000058
:100028000C9400000C9400000C9400000C94000048
:100038000C9400000C9400000C9400000C94000038
:100048000C9400000C9400000C9400000C94000028
:100058000C9400000C9400000C9400000C94000018
:100068001027E80364000A000100001000011000D6
:1000780001004B004F00530049004D00F894EE2753
:10008800EFBBF1E0F5BFE5BFF8E1A895A4B7A77FFE
:10009800A4BFF0936000E09360008DE0A2E0BB276E
:1000A800ED938A95E9F780E094E0A0E0B1E0ED9364
:1000B8000197E9F7E0E0EEBBEFEFEDBFE4E0EEBF5C
:1000C800C0E0D2E00C946800E0E8E0936100E0E072
:1000D800E0936100E1E0E4B9E0E0E5B9E7B9E8E31D
:1000E800E8B9E0E0EAB9EBB9E4BDE5BDE6BDE7BDD6
:1000F800E8BDE0938000E0938100E0938500E09301
:100108008400E0938700E0938600E0938900E09301
:100118008800E0938B00E0938A00E093B600E093B8
:10012800B000E093B100E093B200E093B300E09335
:10013800B400E0936E00E0936F00E0937000E093EA
:100148006900EDBBE0936800E093C000E8E1E0934C
:10015800C100E6E0E093C200E0E0E093C500ECE017
:10016800E093C400E0E8E0BFE0E0E0937B00E093C8
:100178007F00E0937A00ECBDE093BC00EAE7F0E092
:100188007CD1ECE7F0E079D1EEE7F0E076D1E0E879
:10019800F0E073D1E2E8F0E070D1F0CFFFCFAA939E
:1001A800E091C000E072E1F3E881E093C600219697
:1001B8000895BA93AA93AA81F2DFA881B981ED9133
:1001C800FD913196FE93EE9323960895BA93AA93E0
:1001D800269798D110E0AC85BD85E0E0F0E0ED937E
:1001E800FC93EA89FB893196EA8BFB8B3197E49182
:1001F8002E2FE03009F400C1E12FE03031F4253230
:1002080011F411E001C041D1F6C0E130A1F425326A
:1002180011F43BD1EFC012E040E000E02D3211F4C0
:1002280001E0E9C02B3211F44BE2E5C0203211F4B1
:1002380040E2E1C002C0E23039F450E013E020337C
:1002480011F40068D8C003C0E33009F0D4C02033EB
:1002580010F02A3308F007C0AAE05A9F502DE22F69
:10026800E0535E0FC8C0E22FE33639F415D1E889B0
:10027800F989A481AA9316D1BDC0E33729F40CD11A
:1002880017D1E2D01E2F07C0E03749F405D110D1AD
:10029800E7D01E2F086002600F7730E02FC0E436E9
:1002A80011F0E93611F4046002C0E53731F4E8E6EC
:1002B800F0E0EE83FF8315E00CC0E83511F4086028
:1002C80003C0E83709F096C0E2E7F0E0EE83FF8369
:1002D80014E002FF11C0E0D0F4D0AB85AA2332F4B9
:1002E800EA85FB8503D1EA87FB874DE2403011F0B0
:1002F8001F5F01C00B7F02C0CFD0E3D000FD10C04C
:10030800151770F407FF08C002FF04C00B7F242FE5
:10031800115001C020E301C020E2B7D05150F0CF06
:10032800312F01FF16C0303099F003FF06C0EE816F
:10033800FF812591EE83FF8305C0AE81BF812D919A
:10034800AE83BF83A2D0503009F051503150EBCF6B
:1003580048C020E3EE81FF81D1D0E887F987EE819C
:10036800FF813296EE83FF83E885F985AA85BB85F0
:10037800AE17BF0750F02F5FA885B985EA85FB85C2
:10038800EA1BFB0BEA87FB87EFCF2A3328F003FF32
:1003980002C0295F01C0295D04FD19C0213320F482
:1003A800A885B985119709F409C0531710F000FF03
:1003B80001C011C020E207FF0AC020E3006102FF6C
:1003C80006C00B7F4A936ED0503009F051505DD073
:1003D800503009F051503150A885B985129708F06E
:1003E800B8CF00FF07C0503029F05150E0E2EA933F
:1003F80059D0F9CF10E0F5CEAC85BD857BD089D03A
:1004080064960895FF92F82E26971A930A93DE01B0
:10041800149668D08D01E0E0EC83ED83EE83EF83E2
:10042800DE0118965FD066D0FA93EA931A930A937E
:10043800EDEDF0E0FA93EA93DE011896C7DE198134
:1004480008812896FF900895BA93AA93A991B99123
:10045800EE27FF276D91662311F03196FBCF0895A3
:10046800BA93AA93AA27BB27E991F991059000208E
:1004780011F01196FBCFFD010895FA93EA9380E0FD
:10048800C1DF2296A8EEB3E023C02A93AD85BE85CE
:10049800EF85F88909950895E889F9893497E88BF3
:1004A800F98B0895AD85BE85EF85F889099508957E
:1004B800A889B98914961ED0EE83FF83AE81BF81C7
:1004C8000895A889B989149615D0EA87FB870895F5
:1004D800109639F08AEF90E00197F1F7A8951197F7
:1004E800C9F708950024AF0DB01D0895F195E19561
:1004F800F0400895ED91FC91119708950590F491BD
:10050800E02D08955A934A933A932A931A930A939B
:1005180008955D814C813B812A8119810881089564
:00000001FF
