:0A0000000C944A000C9400000C94CC
:10000A0000000C9400000C9400000C9400000C9466
:10001A0000000C9400000C9400000C9400000C9456
:10002A0000000C9400000C9400000C9400000C9446
:10003A0000000C9400000C9400000C9400000C9436
:10004A0000000C9400000C9400000C9400000C9426
:10005A0000000C9400000C9400000C94000010277F
:10006A00E80364000A00010000100001100001000A
:10007A004130303142303032433030330041303059
:10008A0034423030354330303600F894EE27EFBB37
:10009A00F1E0F5BFE5BF8DE0A2E0BB27ED938A95BD
:1000AA00E9F780E094E0A0E0B1E0ED930197E9F789
:1000BA00E0E0EEBBEFEFEDBFE4E0EEBFC0E0D2E080
:1000CA000C946700E0E8E0936100E0E0E0936100EF
:1000DA00E1E0E4B9E0E0E5B9E7B9E8E3E8B9E0E08E
:1000EA00EAB9EBB9E4BDE5BDE6BDE7BDE8BDE0931D
:1000FA008000E0938100E0938500E0938400E09320
:10010A008700E0938600E0938900E0938800E093FB
:10011A008B00E0938A00E093B600E093B000E0938E
:10012A00B100E093B200E093B300E093B400E0932F
:10013A006E00E0936F00E0937000E0936900EDBBFE
:10014A00E0936800E093C000E8E1E093C100E6E0D4
:10015A00E093C200E0E0E093C500ECE0E093C40065
:10016A00E0E8E0BFE0E0E0937B00E0937F00E0930B
:10017A007A00ECBDE093BC00EAE7F0E084D1E7E85E
:10018A00F0E081D1F9CFFFCFAA93E091C000E072ED
:10019A00E1F3E881E093C60021960895BA93AA9301
:1001AA00AA81F2DFA881B981ED91FD913196FE9382
:1001BA00EE9323960895BA93AA93269789D110E0CD
:1001CA00AC85BD85E0E0F0E0ED93FC93EA89FB891C
:1001DA003196EA8BFB8B3197E4912E2FE03009F4AC
:1001EA000BC1E12FE03031F4253211F411E001C0E6
:1001FA0052D101C1E130A1F4253211F44CD1FAC037
:10020A0012E040E000E02D3211F401E0F4C02B329C
:10021A0011F44BE2F0C0203211F440E2ECC002C00B
:10022A00E23039F450E013E0203311F40068E3C0FF
:10023A0003C0E33009F0DFC0203310F02A3308F09E
:10024A0007C0AAE05A9F502DE22FE0535E0FD3C099
:10025A00E22FE33639F426D1E889F989A481AA93F1
:10026A0027D1C8C0E33729F41DD128D1F3D01E2FD6
:10027A0007C0E03749F416D121D1F8D01E2F086003
:10028A0002600F7730E03AC0E43611F0E93611F433
:10029A00046002C0E53731F4E8E6F0E0EE83FF835C
:1002AA0015E00CC0E83511F4086003C0E83709F01E
:1002BA00A1C0E2E7F0E0EE83FF8314E002FF15C07D
:1002CA00F1D0A889B9891496ED91FD91EA87FB8747
:1002DA00AB85AA2322F40AD1EA87FB874DE2403094
:1002EA0011F01F5F01C00B7F09C0DCD0A889B98952
:1002FA001496ED91FC911197EA87FB8700FD10C0D7
:10030A00151770F407FF08C002FF04C00B7F242FE3
:10031A00115001C020E301C020E2BDD05150F0CFFE
:10032A00312F01FF16C0303099F003FF06C0EE816D
:10033A00FF812591EE83FF8305C0AE81BF812D9198
:10034A00AE83BF83A8D0503009F051503150EBCF63
:10035A0048C020E3EE81FF81CDD0E887F987EE819E
:10036A00FF813296EE83FF83E885F985AA85BB85EE
:10037A00AE17BF0750F02F5FA885B985EA85FB85C0
:10038A00EA1BFB0BEA87FB87EFCF2A3328F003FF30
:10039A0002C0295F01C0295D04FD19C0213320F480
:1003AA00A885B985119709F409C0531710F000FF01
:1003BA0001C011C020E207FF0AC020E3006102FF6A
:1003CA0006C00B7F4A9374D0503009F0515063D065
:1003DA00503009F051503150A885B985129708F06C
:1003EA00B8CF00FF07C0503029F05150E0E2EA933D
:1003FA005FD0F9CF10E0EACEAC85BD85ED91FD91D5
:10040A006ED064960895FF92F82E26971A930A934F
:10041A00DE0114960024AF0DB01D8D01E0E0EC83DF
:10042A00ED83EE83EF83DE0118960024AF0DB01D35
:10043A00ED91FD91FA93EA931A930A93E3EDF0E0B2
:10044A00FA93EA93DE011896B6DE19810881289696
:10045A00FF900895BA93AA93A991B991EE27FF271D
:10046A006D91662311F03196FBCF0895BA93AA9342
:10047A00AA27BB27E991F9910590002011F011965E
:10048A00FBCFFD010895FA93EA9380E0BCDF229640
:10049A00A4EFB1E033C02A93AD85BE85EF85F88914
:1004AA0009950895E889F9893497E88BF98B0895B5
:1004BA00AD85BE85EF85F88909950895A889B9891A
:1004CA001496ED91FD91EE83FF83AE81BF8108956D
:1004DA005A934A933A932A931A930A9308955D81F9
:1004EA004C813B812A81198108810895F195E19512
:1004FA00F04008950590F491E02D0895109639F092
:10050A00A8958AEF90E00197F1F71197C9F7089536
:00000001FF
