:0C0000000C9444000C9400000C940000D0
:10000C000C9400000C9400000C9400000C94000064
:10001C000C9400000C9400000C9400000C94000054
:10002C000C9400000C9400000C9400000C94000044
:10003C000C9400000C9400000C9400000C94000034
:10004C000C9400000C9400000C9473000C940000B1
:10005C000C9400000C9400000C9400001027E80392
:10006C0064000A00010000100001100001000000F3
:10007C0025640000020003007A000000F894EE27CB
:10008C00EFBBF1E0F5BFE5BF8DE0A2E0BB27ED9340
:10009C008A95E9F780E094E0A0E0B1E0ED93019758
:1000AC00E9F7E0E8F0E085919591009761F0A59172
:1000BC00B59105901590BF01F00105900D92019737
:1000CC00E1F7FB01F0CFE0E0EEBBEFEFEDBFE4E0DA
:1000DC00EEBFC0E0D2E00C9493001A93109179001B
:1000EC00199118951A931A2FE12FE0937C0083E055
:1000FC008A95F1F7E0917A00E160E0937A00E09163
:10010C007A00E071E1F3E0917A00E061E0937A002B
:10011C00E0917800F091790091C0E0E8E093610003
:10012C00E0E0E0936100E7E0E4B9E0E0E5B9E7B9CD
:10013C00E0E3E8B9E0E0EAB9EBB9E4BDE5BDE6BD62
:10014C00E7BDE8BDE0938000E0938100E09385007B
:10015C00E0938400E0938700E0938600E0938900AD
:10016C00E0938800E0938B00E0938A00E093B60064
:10017C00E093B000E093B100E093B200E093B300E1
:10018C00E093B400E0936E00E0936F00E093700096
:10019C00E0936900EDBBE0936800E093C000E8E1F8
:1001AC00E093C100E6E0E093C200E0E0E093C5001C
:1001BC00ECE0E093C400E0E8E0BFE0E0E0937F0017
:1001CC00E0937C00E9EAE0937A00E0E0E0937B00C6
:1001DC00E0937E00E0917A00E064E0937A00E0E046
:1001EC00ECBDE093BC007894E1E0F0E03E0E4F1ED5
:1001FC00E8EEF3E0E315F405B9F433244424A0E06D
:10020C0071DF5E2E6F2EECE7F0E0FA93EA93E52DAA
:10021C00F62D6F2F660F660B762FBBD184E046D17F
:10022C002696A8EEB3E0BAD1DFCFFFCF1A931A2FE0
:10023C00E091C000E072E1F31093C60019910895AB
:10024C0094D18D013C81A32FF1DFD801ED91FD916B
:10025C003196FE93EE9390D125960895BA93AA9376
:10026C00269781D110E0AC85BD85E0E0F0E0ED9300
:10027C00FC93EA89FB893196EA8BFB8B3197E491ED
:10028C002E2FE03009F40BC1E12FE03031F4253290
:10029C0011F411E001C04AD101C1E130A1F42532C1
:1002AC0011F444D1FAC012E040E000E02D3211F418
:1002BC0001E0F4C02B3211F44BE2F0C0203211F407
:1002CC0040E2ECC002C0E23039F450E013E02033DD
:1002DC0011F40068E3C003C0E33009F0DFC0203341
:1002EC0010F02A3308F007C0AAE05A9F502DE22FD5
:1002FC00E0535E0FD3C0E22FE33639F41ED1E88908
:10030C00F989A481AA931FD1C8C0E33729F415D168
:10031C0020D1F3D01E2F07C0E03749F40ED119D1EC
:10032C00F8D01E2F086002600F7730E03AC0E43638
:10033C0011F0E93611F4046002C0E53731F4E8E657
:10034C00F0E0EE83FF8315E00CC0E83511F4086093
:10035C0003C0E83709F0A1C0E2E7F0E0EE83FF83C9
:10036C0014E002FF15C0E9D0A889B9891496ED9163
:10037C00FD91EA87FB87AB85AA2322F402D1EA8799
:10038C00FB874DE2403011F01F5F01C00B7F09C0AD
:10039C00D4D0A889B9891496ED91FC911197EA876C
:1003AC00FB8700FD10C0151770F407FF08C002FF93
:1003BC0004C00B7F242F115001C020E301C020E2A8
:1003CC00B5D05150F0CF312F01FF16C0303099F01D
:1003DC0003FF06C0EE81FF812591EE83FF8305C0EC
:1003EC00AE81BF812D91AE83BF83A0D0503009F078
:1003FC0051503150EBCF48C020E3EE81FF81C5D086
:10040C00E887F987EE81FF813296EE83FF83E885DA
:10041C00F985AA85BB85AE17BF0750F02F5FA8855D
:10042C00B985EA85FB85EA1BFB0BEA87FB87EFCFD7
:10043C002A3328F003FF02C0295F01C0295D04FDA7
:10044C0019C0213320F4A885B985119709F409C086
:10045C00531710F000FF01C011C020E207FF0AC0C3
:10046C0020E3006102FF06C00B7F4A936CD0503032
:10047C0009F051505BD0503009F051503150A885E3
:10048C00B985129708F0B8CF00FF07C0503029F09B
:10049C005150E0E2EA9357D0F9CF10E0EACEAC85A8
:1004AC00BD85ED91FD9166D064960895FF92F82E6E
:1004BC0026971A930A93DE0114960024AF0DB01DF3
:1004CC008D01E0E0EC83ED83EE83EF83DE01189683
:1004DC000024AF0DB01DED91FD91FA93EA931A93A0
:1004EC000A93E6E2F1E0FA93EA93DE011896B6DE9F
:1004FC00198108812896FF900895BA93AA93A9911F
:10050C00B991EE27FF276D91662311F03196FBCF41
:10051C000895BA93AA93AA27BB27E991F99105905C
:10052C00002011F01196FBCFFD0108952A93AD85A3
:10053C00BE85EF85F88909950895E889F98934977E
:10054C00E88BF98B0895AD85BE85EF85F889099503
:10055C000895A889B9891496ED91FD91EE83FF83D6
:10056C00AE81BF8108955A934A933A932A931A9372
:10057C000A9308955D814C813B812A811981088100
:10058C000895F195E195F04008950590F491E02DD2
:10059C0008957A936A93FA93EA930895109639F032
:1005AC00A8958AEF90E00197F1F71197C9F7089594
:00000001FF
