:060000000C9434000C9486
:1000060000000C9400000C9400000C9400000C946A
:1000160000000C9400000C9400000C9400000C945A
:1000260000000C9400000C9400000C9400000C944A
:1000360000000C9400000C9400000C9400000C943A
:1000460000000C9400000C9400000C9400000C942A
:1000560000000C9400000C9400000C9400000C941A
:100066000000F894EE27EFBBF1E0F5BFE5BF8DE0A9
:10007600A2E0BB27ED938A95E9F780E094E0A0E043
:10008600B1E0ED930197E9F7E0E0EEBBEFEFEDBFEE
:10009600E4E0EEBFC0E0D2E00C94860090D08FD0B2
:1000A60098D0B0D024C0AED0299A299892D0AFD09B
:1000B600299A2998A7D0299A2998289818C07FD0D4
:1000C600AAD0299A2998289A299A2998289A03C061
:1000D60076D075D02898299A299894D0299A299863
:1000E60091D0299A299893D0299A299894D0299A17
:1000F60029980895EDDFE3DFD6DFD0DFD4DFDFDF39
:100106002A9A2A980895E0E8E0936100E0E0E093F7
:100116006100E7E0E4B9E5B9E0E0E7B9E8B9EAB9D2
:10012600EBB9E4BDE5BDE6BDE7BDE8BDE093800003
:10013600E0938100E0938500E0938400E0938700DC
:10014600E0938600E0938900E0938800E0938B00BB
:10015600E0938A00E093B600E093B000E093B1002C
:10016600E093B200E093B300E093B400E0936E0036
:10017600E0936F00E0937000E0936900EDBBE093BD
:100186006800E093C100E0E8E0BFE0E0E0937B00B8
:10019600E0937F00E0937A00ECBDE093BC00AADF19
:1001A600E32DF42DE130A0E0FA0711F47CDF05C061
:1001B600E230A0E0FA0709F482DFF1CFFFCF289AF8
:1001C600299A2998289A299A2998289A299A299819
:1001D6000895289A299A2998289A299A2998289830
:1001E600299A29982898299A29982898299A2998FD
:1001F6002898299A29982898299A29982898299AEE
:10020600299808952898299A299828980895289A27
:10021600299A2998F7CF2898299A2998289A0895EB
:00000001FF
