:0A0000000C944C000C9400000C94CA
:10000A0000000C9400000C9400000C9400000C9466
:10001A0000000C9400000C9400000C9400000C9456
:10002A0000000C9400000C9400000C9400000C9446
:10003A0000000C9400000C9400000C9400000C9436
:10004A0000000C9400000C9400000C9400000C9426
:10005A0000000C9400000C9400000C94000010277F
:10006A00E80364000A00010000100001100001000A
:10007A000000000000000000000000002564256464
:10008A002564256400000C0003007A000000F8943F
:10009A00EE27EFBBF1E0F5BFE5BF8DE0A2E0BB279D
:1000AA00ED938A95E9F780E094E0A0E0B1E0ED9362
:1000BA000197E9F7E0E9F0E085919591009761F001
:1000CA00A591B59105901590BF01F00105900D928B
:1000DA000197E1F7FB01F0CFE0E0EEBBEFEFEDBFF8
:1000EA00E4E0EEBFC0E0D2E00C944A010AD309D39F
:1000FA0012D32AD36CC028D3299A29980CD329D38E
:10010A00299A299821D3299A2998289860C0F9D23E
:10011A0024D31AD3299A299817D323D352C0F1D2B8
:10012A00F0D212D3299A29980FD322D34AC00CD3DA
:10013A0023D328D32BD31CD344C0289A1DD30DD341
:10014A002BD316D33EC0289A17D307D3289A14D391
:10015A00FBD20ED336C0D5D2FCD2299A2998F4D232
:10016A00299A2998F1D2299A2998EED2299A299876
:10017A00EBD2299A2998E8D22AC0C3D2C2D2289AA5
:10018A00FBD2E2D2F5D21DC0BCD2BBD205D3F0D28B
:10019A0018C0289AF1D2E1D2289AEED2D5D2F6D254
:1001AA00299A2998D1D213C0CFD2299A2998CCD288
:1001BA00299A2998C9D2E0D2E5D2D3D2299A299884
:1001CA00289A299A2998C0D2299A2998289A299A44
:1001DA00299808951A931A2FE12FE0937C0083E05F
:1001EA008A95F1F7E0917A00E064E0937A00E09171
:1001FA007A00E071E1F3E0917A00E061E0937A003D
:10020A00E0917800F091790004C11A930A938D0164
:10021A00F801309711F46ADF35C0E130A0E0FA073F
:10022A0011F469DF2FC0E230A0E0FA0711F46FDFA2
:10023A0029C0E330A0E0FA0711F471DF23C0E430EB
:10024A00A0E0FA0711F473DF1DC0E530A0E0FA0759
:10025A0011F473DF17C0E630A0E0FA0711F473DF78
:10026A0011C0E730A0E0FA0711F475DF0BC0E830DF
:10027A00A0E0FA0711F481DF05C0E930A0E0FA072F
:10028A0009F482DF099119910895E0E8E093610089
:10029A00E0E0E0936100E7E0E4B9E0E0E5B9E7B95E
:1002AA00E0E3E8B9E0E0EAB9EBB9E4BDE5BDE6BDF3
:1002BA00E7BDE8BDE0938000E0938100E09385000C
:1002CA00E0938400E0938700E0938600E09389003E
:1002DA00E0938800E0938B00E0938A00E093B600F5
:1002EA00E093B000E093B100E093B200E093B30072
:1002FA00E093B400E0936E00E0936F00E093700027
:10030A00E0936900EDBBE0936800E093C000E8E188
:10031A00E093C100E6E0E093C200E0E0E093C500AC
:10032A00ECE0E093C400E0E8E0BFE0E0E0937F00A7
:10033A00E1E8E0937A00E0E0E0937B00E0937E005E
:10034A00ECBDE093BC00E1E0F0E03E0E4F1EE8EEAB
:10035A00F3E0E315F40509F052C033244424A0E085
:10036A0039DF5E2E6F2EA52DB62DE8EEF3E07AD298
:10037A007E2E8F2E15D2DF01E4E6F0E073D29E2E98
:10038A00AF2E0ED218D2DB01AE1BBF0BEAE0F0E0B3
:10039A0069D2BE2ECF2E04D20ED26E1B7F0BEB2D4E
:1003AA00FC2DAAE0B0E043D2DB01AE1BBF0BDA2E74
:1003BA00EB2EEFDEF9DEAD2DBE2D27DFAB2DBC2DEA
:1003CA0024DFA92DBA2D21DFA72DB82D1EDF2A9AE9
:1003DA002A98E6E8F0E0FA93EA93E72DF82DF2D1AD
:1003EA00E92DFA2DEFD1EB2DFC2DECD1ED2DFE2DC3
:1003FA00E9D180E146D16296A8EEB3E04FD2A3CF0D
:10040A00FFCF1A931A2FE091C000E072E1F3109324
:10041A00C60019910895FBD18D013C81A32FF1DF0C
:10042A00D801ED91FD913196FE93EE93F7D1259681
:10043A000895BA93AA932697E8D110E0AC85BD85B2
:10044A00E0E0F0E0ED93FC93EA89FB893196EA8BD0
:10045A00FB8B3197E4912E2FE03009F40BC1E12F89
:10046A00E03031F4253211F411E001C0B1D101C1FB
:10047A00E130A1F4253211F4ABD1FAC012E040E028
:10048A0000E02D3211F401E0F4C02B3211F44BE2FA
:10049A00F0C0203211F440E2ECC002C0E23039F47C
:1004AA0050E013E0203311F40068E3C003C0E330E6
:1004BA0009F0DFC0203310F02A3308F007C0AAE0A1
:1004CA005A9F502DE22FE0535E0FD3C0E22FE3363E
:1004DA0039F485D1E889F989A481AA9386D1C8C05B
:1004EA00E33729F47CD187D1F3D01E2F07C0E03738
:1004FA0049F475D180D1F8D01E2F086002600F77B9
:10050A0030E03AC0E43611F0E93611F4046002C072
:10051A00E53731F4E8E6F0E0EE83FF8315E00CC03E
:10052A00E83511F4086003C0E83709F0A1C0E2E732
:10053A00F0E0EE83FF8314E002FF15C050D1A889D2
:10054A00B9891496ED91FD91EA87FB87AB85AA23B9
:10055A0022F469D1EA87FB874DE2403011F01F5F30
:10056A0001C00B7F09C03BD1A889B9891496ED91C6
:10057A00FC911197EA87FB8700FD10C0151770F4EC
:10058A0007FF08C002FF04C00B7F242F115001C0CF
:10059A0020E301C020E21CD15150F0CF312F01FFDE
:1005AA0016C0303099F003FF06C0EE81FF81259115
:1005BA00EE83FF8305C0AE81BF812D91AE83BF83D9
:1005CA0007D1503009F051503150EBCF48C020E3E9
:1005DA00EE81FF815AD1E887F987EE81FF81329651
:1005EA00EE83FF83E885F985AA85BB85AE17BF0729
:1005FA0050F02F5FA885B985EA85FB85EA1BFB0BBE
:10060A00EA87FB87EFCF2A3328F003FF02C0295F6E
:10061A0001C0295D04FD19C0213320F4A885B985DC
:10062A00119709F409C0531710F000FF01C011C057
:10063A0020E207FF0AC020E3006102FF06C00B7F29
:10064A004A93D3D0503009F05150C2D0503009F0FB
:10065A0051503150A885B985129708F0B8CF00FFDC
:10066A0007C0503029F05150E0E2EA93BED0F9CFEA
:10067A0010E0EACEAC85BD85ED91FD91CDD06496B2
:10068A000895FF92F82E26971A930A93DE0114967C
:10069A000024AF0DB01D8D01E0E0EC83ED83EE8305
:1006AA00EF83DE0118960024AF0DB01DED91FD9188
:1006BA00FA93EA931A930A93E0E1F2E0FA93EA933F
:1006CA00DE011896B6DE198108812896FF900895F2
:1006DA00BA93AA93A991B991EE27FF276D91662340
:1006EA0011F03196FBCF0895BA93AA93AA27BB2794
:1006FA00E991F9910590002011F01196FBCFFD01C7
:10070A000895289A299A2998289A299A2998289AF4
:10071A00299A29980895289A299A2998289A299AE3
:10072A0029982898299A29982898299A29982898B6
:10073A00299A29982898299A29982898299A2998A3
:10074A002898299A299808952898299A29982898BA
:10075A000895289A299A2998F7CF2898299A2998A2
:10076A00D0CF299A2998289A299A299828980895B9
:10077A00299A29982898F5CF299A2998289A299A5E
:10078A0029980895289A299A2998DECF299A29988A
:10079A002898299A2998DDCF2898299A2998D9CF73
:1007AA00E72DF82DA8EEB3E042D0DF01E52DF62DB6
:1007BA00EA1BFB0B0895BF01E92DFA2DA4E6B0E070
:1007CA0036D008956F2F660F660B762F62D0089584
:1007DA002A93AD85BE85EF85F88909950895E8893C
:1007EA00F9893497E88BF98B0895AD85BE85EF8535
:1007FA00F88909950895A889B9891496ED91FD910A
:10080A00EE83FF83AE81BF8108955A934A933A9348
:10081A002A931A930A9308955D814C813B812A8118
:10082A00198108810895F195E195F0400895FA9F9C
:10083A00F02DEB9FF00DEA9FE02DF10D08950024B5
:10084A00112490E1AA0FBB1F001C111C0E1A1F0ACB
:10085A0018F40E0E1F1E01C0A1609A9599F7FD01AA
:10086A00D001089504D0EBDF0EF4DDDF0895E8949B
:10087A00F7FF02C0D8DF6894B7FF06C0B195A1950B
:10088A00B04000F8039400FA08950590F491E02D21
:10089A0008957A936A93FA93EA930895109639F031
:1008AA00A8958AEF90E00197F1F71197C9F7089593
:00000001FF
